:100000000C942A000C9447000C9447000C94470071
:100010000C9447000C9447000C9447000C94470044
:100020000C9447000C9447000C9447000C94470034
:100030000C9447000C9447000C9447000C94470024
:100040000C9447000C9447000C9447000C94470014
:100050000C94470011241FBECFE5D4E0DEBFCDBF16
:1000600011E0A0E6B0E0E0ECFEE002C005900D92E9
:10007000AA31B107D9F711E0AAE1B1E001C01D92A0
:10008000AC32B107E1F70E9491050C945E070C9425
:100090000000982F29E030E0F901E250FF4F808105
:1000A000981731F0215030408FEF2F3F3807A1F7DC
:1000B000C9010895982F23E030E0F901E85FFE4F71
:1000C0008081981731F0215030408FEF2F3F380753
:1000D000A1F7C9010895FC0140E0228133818081AC
:1000E00091812817390709F441E0842F089520E011
:1000F000FC0182819381892B09F421E0822F0895EC
:10010000DC0112962D913C9113978D919C91119742
:100110002817390799F0220F331F1496ED91FC919F
:100120001597E20FF31F7183608312968D919C9156
:100130001397019613969C938E9312970895FC0142
:1001400082819381009721F4E0E0F0E0CF010895EF
:10015000019793838283880F991F0480F581E02D96
:10016000E80FF91F0190F081E02DF0CFFC01138220
:1001700012820895EF92FF920F931F93CF93DF9314
:10018000EC01EE24FF24870121E08A819B81009706
:1001900049F4B701C801DF91CF911F910F91FF90F2
:1001A000EF90089501979B838A8330E0880F991F11
:1001B000EC81FD81E80FF91F80819181AC01249FC2
:1001C000C001259F900D349F900D1124AA2797FD03
:1001D000A095BA2FE80EF91E0A1F1B1FC90153E094
:1001E000880F991F5A95E1F7220F331F280FCDCFA3
:1001F0000F931F938C01FC01848195810E94C1069D
:10020000C8010E94C1061F910F910895DF92EF92DD
:10021000FF920F931F938C0186E090E00E941406DA
:10022000D92EE82EF92EF701118300831382128252
:10023000C801880F991F0E941406F70184839583D3
:100240008E2D9D2D1F910F91FF90EF90DF900895BF
:100250000F931F93CF93DF93C0E0D0E00C2F83E484
:100260006FEF0E947C0283E4BE010E94150383E4C9
:100270000E949002182F107F103F39F083E40E94F3
:100280009002807F803FD1F705C00F5F2196C43078
:10029000D10521F7043009F45DC00130F1F00130DF
:1002A00030F0023071F1033009F053C03EC0103B12
:1002B00081F0113B20F4103709F04BC00CC0103D09
:1002C00021F0103E09F045C002C088E344C087E336
:1002D00042C089E340C08FE23EC0103B71F0113B49
:1002E00018F41037B1F50BC0103D19F0103E89F528
:1002F00002C085E330C084E32EC086E32CC088E5CD
:100300002AC0103B71F0113B18F4103711F50BC0E7
:10031000103D19F0103EE9F402C082E31CC081E3F5
:100320001AC083E318C08DE216C0103B71F0113B78
:1003300018F4103771F40BC0103D19F0103E49F459
:1003400002C080E308C083E406C08DE304C08BE2F2
:1003500002C001C080E0DF91CF911F910F910895FD
:1003600083E46FE00E94680283E46FEF0E947C02E6
:100370000895682F82E490E070E00E947C0282E49D
:1003800090E060E070E00E94DD0282E490E062E0D4
:1003900070E00E94DD028AEF90E00197F1F782E4BD
:1003A00090E062E070E00E94150308951F93182FFB
:1003B000807F0E94B901812F8295807F0E94B901C0
:1003C00080E593EC0197F1F71F910895CF93DF93A8
:1003D000EC0102C00E94D60189918823D9F7DF91F0
:1003E000CF910895682F82E490E070E00E947C0233
:1003F00082E490E060E070E00E94150382E490E007
:1004000062E070E00E94DD028AEF90E00197F1F770
:1004100082E490E062E070E00E94150308951F936B
:10042000182F807F0E94F201812F8295807F0E9489
:10043000F2011F91089581E00E940F0280E593EC84
:100440000197F1F708951616170614F4805401C0A9
:1004500080580E940F0280E593EC0197F1F7089510
:1004600082E490E06FEF70E00E94680282E00E94F8
:100470000F0288E20E940F028CE00E940F0286E0C9
:100480000E940F0280E80E940F02089590BD89B972
:1004900088E18AB98EE880BD08955D9BFECF8CB956
:1004A00084ED90E30197F1F708955F9BFECF8CB147
:1004B0000895FC0124ED30E307C05D9BFECF8CB9AD
:1004C000C9010197F1F7319680818823B1F708952A
:1004D000823461F0833418F4813469F405C08334C4
:1004E00039F0843441F406C06ABB089567BB0895AF
:1004F00064BB089561BB0895823461F0833418F4BD
:10050000813469F405C0833439F0843441F406C081
:100510006BBB089568BB089565BB089562BB0895E1
:10052000823461F0833418F4813471F405C083346B
:1005300039F0843449F406C089B3089586B3089528
:1005400083B3089580B3089508958234A9F0833465
:1005500018F4813489F505C08334C9F0843461F519
:1005600021C02AB381E090E002C0880F991F6A95EC
:10057000E2F7282B2ABB089527B381E090E002C060
:10058000880F991F6A95E2F7282B27BB089524B39B
:1005900081E090E002C0880F991F6A95E2F7282B4E
:1005A00024BB089521B381E090E002C0880F991F19
:1005B0006A95E2F7282B21BB08958234A9F0833491
:1005C00018F4813489F505C08334C9F0843461F5A9
:1005D00021C02BB381E090E002C0880F991F6A957B
:1005E000E2F7282B2BBB089528B381E090E002C0EE
:1005F000880F991F6A95E2F7282B28BB089525B329
:1006000081E090E002C0880F991F6A95E2F7282BDD
:1006100025BB089522B381E090E002C0880F991FA6
:100620006A95E2F7282B22BB08958234B1F0833417
:1006300018F48134A9F505C08334D9F0843481F5E8
:1006400024C02BB381E090E002C0880F991F6A9507
:10065000E2F7809582238BBB089528B381E090E078
:1006600002C0880F991F6A95E2F78095822388BBA4
:10067000089525B381E090E002C0880F991F6A9524
:10068000E2F78095822385BB089522B381E090E054
:1006900002C0880F991F6A95E2F78095822382BB7A
:1006A00008958234A9F0833418F4813489F505C0A3
:1006B0008334C9F0843461F521C02BB381E090E02C
:1006C00002C0880F991F6A95E2F728272BBB08956F
:1006D00028B381E090E002C0880F991F6A95E2F785
:1006E000282728BB089525B381E090E002C0880F39
:1006F000991F6A95E2F7282725BB089522B381E068
:1007000090E002C0880F991F6A95E2F7282722BB64
:100710000895EF92FF920F931F938091240190917F
:1007200025010E947700882349F0E0902001F09095
:100730002101009122011091230108C08091240120
:10074000909125010E94BA007B018C0180911E01CD
:1007500090911F010E94BA009B01AC0180911A0187
:1007600090911B018130910589F0823091051CF434
:10077000892B39F033C082309105A9F0039771F5C8
:1007800021C02E0D3F1D401F511F20C0E21AF30A49
:10079000040B150BE0922001F0922101009322013D
:1007A000109323011BC0CA01B901A80197010E943F
:1007B000B8056093200170932101809322019093EA
:1007C00023010CC0C801B7010E94D7052093200166
:1007D0003093210140932201509323010E941B0278
:1007E00080E090E060E070E00E94230288E090E00A
:1007F0000E941406182F092F809120019091210149
:10080000612F702F4AE050E00E9419070E94E60114
:1008100080E690E00E945902E0911A01F0911B01DC
:10082000EA5EFE4F80810E944D028BE690E00E94BE
:1008300059028EE690E00E945902812F902F0E946B
:1008400059028BE690E00E94590280912401909118
:1008500025010E94B60080911E0190911F010E9407
:10086000B6001F910F91FF90EF90089510921D0117
:1008700010921C0180912401909125010E94B600E4
:1008800080911E0190911F010E94B6000E941B02E0
:1008900080E090E060E070E00E942302089587E726
:1008A00090E00E94590282E463E070E00E94DD0261
:1008B00088E893E129E130E0F9013197F1F70197F8
:1008C000D9F782E463E070E00E94150308951F9356
:1008D000182F833429F40E9436048FE790E01DC15D
:1008E00080911C0190911D018230910509F48EC008
:1008F0008330910534F4009761F0019709F00FC13E
:1009000064C08330910509F4C1C0049709F007C1A0
:10091000DCC0812F0E94490090932701809326011B
:100920008F5F9F4FD1F08DE890E00E945902809137
:100930002401909125010E946B00882349F4609165
:10094000260170912701809124019091250179C0A1
:100950000E944F0486E990E02BC0812F0E945A002C
:100960008F5F9F4F09F4C8C0812F0E945A00909357
:100970001B0180931A0184EA90E00E945902E091E1
:100980001A01F0911B01EA5EFE4F80810E944D0228
:100990008BE690E00E9459028091240190912501FC
:1009A0000E947700882339F00E944F0480EB90E08A
:1009B0000E945902A3C081E090E090931D018093B2
:1009C0001C01812F0E94D60199C0812F0E944900ED
:1009D00090932701809326018F5F9F4F09F48CC06D
:1009E00080911E0190911F010E946B00882309F0E5
:1009F00083C0609126017091270180911E01909122
:100A00001F010E94800082E090E0D7CF812F0E94DA
:100A1000490090932701809326018F5F9F4FA1F09B
:100A200080911E0190911F010E946B00882309F0A4
:100A300063C0609126017091270180911E01909101
:100A40001F010E948000BDCF812F0E945A008F5F3E
:100A50009F4F81F083E090E090931D0180931C01F3
:100A60000E948903812F0E945A0090931B0180935A
:100A70001A0144C01D3309F03FC084E090E0909318
:100A80001D0180931C010E94890338C0812F0E94A0
:100A9000490090932701809326018F5F9F4F61F15A
:100AA00080911E0190911F010E946B00882321F507
:100AB000609126017091270180911E0190911F0184
:100AC0000E94800082E090E012C0812F0E945A00B4
:100AD0008F5F9F4F89F0812F0E945A0090931B01D6
:100AE00080931A01812F0E94D60183E090E09093B9
:100AF0001D0180931C0102C00E944F0482ED90E012
:100B00000E945902E0911C01F0911D01E45FFE4F2B
:100B100080810E944D028BE690E00E9459021F9155
:100B200008950E9430020E94B00183E390E00E9489
:100B300046028AED90E00E94590288E090E00E940F
:100B40000601909325018093240188E090E00E94A3
:100B5000060190931F0180931E0110921D011092B7
:100B60001C010E9428018823E1F30E946704F9CF49
:100B7000629FD001739FF001829FE00DF11D649F81
:100B8000E00DF11D929FF00D839FF00D749FF00D0D
:100B9000659FF00D9927729FB00DE11DF91F639FAE
:100BA000B00DE11DF91FBD01CF011124089597FB80
:100BB000092E05260ED057FD04D014D00AD0001CF3
:100BC00038F450954095309521953F4F4F4F5F4FEA
:100BD0000895F6F790958095709561957F4F8F4FAA
:100BE0009F4F0895A1E21A2EAA1BBB1BFD010DC049
:100BF000AA1FBB1FEE1FFF1FA217B307E407F507CD
:100C000020F0A21BB30BE40BF50B661F771F881FA8
:100C1000991F1A9469F760957095809590959B013E
:100C2000AC01BD01CF010895CF93DF93BC018230A9
:100C3000910510F462E070E0A0912A01B0912B01BF
:100C4000ED01E0E0F0E040E050E021C088819981D2
:100C50008617970769F48A819B81309719F09383EF
:100C6000828304C090932B0180932A01FE0134C03B
:100C70006817790738F44115510519F0841795075D
:100C800008F4AC01FE018A819B819C01E901209757
:100C9000E9F641155105A9F1CA01861B970B049786
:100CA00008F4BA01E0E0F0E02AC08D919C91119720
:100CB00084179507F9F46417750781F412968D91DE
:100CC0009C911397309719F09383828304C090937B
:100CD0002B0180932A01FD0132964FC0CA01861B69
:100CE000970BFD01E80FF91F6193719302978D93A4
:100CF0009C9343C0FD01828193819C01D90110978F
:100D0000A1F68091280190912901892B41F48091CD
:100D1000FA009091FB009093290180932801409163
:100D2000FC005091FD004115510541F44DB75EB7EF
:100D30008091F8009091F900481B590B20912801EF
:100D40003091290124173507B0F4CA01821B930B97
:100D50008617970780F0AB014E5F5F4F84179507AA
:100D600050F0420F531F5093290140932801F9017D
:100D70006193719302C0E0E0F0E0CF01DF91CF9189
:100D80000895CF93DF93009709F450C0EC012297A8
:100D90001B821A82A0912A01B0912B01109709F1B0
:100DA00040E050E0AC17BD0708F1BB83AA83FE0109
:100DB00021913191E20FF31FAE17BF0779F48D91A6
:100DC0009C911197280F391F2E5F3F4F398328833D
:100DD00012968D919C9113979B838A83411551059F
:100DE00071F4D0932B01C0932A0120C012968D91EB
:100DF0009C911397AD01009711F0DC01D3CFFA015C
:100E0000D383C28321913191E20FF31FCE17DF0705
:100E100069F488819981280F391F2E5F3F4FFA01AD
:100E2000318320838A819B8193838283DF91CF9159
:100E30000895FB019F01E8944230C4F04532B4F4B8
:100E40004A3029F497FB1EF4909581959F4F642FAB
:100E500077270E944A07805D8A330CF0895D819371
:100E6000CB010097A1F716F45DE251931082C901FE
:100E70000C943A07DC01FC01672F71917723E1F7AD
:100E8000329704C07C916D9370836291AE17BF0757
:100E9000C8F30895AA1BBB1B51E107C0AA1FBB1FC3
:100EA000A617B70710F0A61BB70B881F991F5A95F6
:100EB000A9F780959095BC01CD010895F894FFCFD6
:100EC0006F70657261746F722000000D00007265B2
:100ED00073756C742000006572726F720D00006C87
:100EE000636420636C65617265640D00006E756DEE
:100EF0006265720D000020737461636B2066756C0F
:100F00006C0D0000206F70657261746F72200000BC
:100F10006F70657261746F722063616E27742062F6
:100F200065207468652031737420696E7075740D66
:100F30000000737461746520000063616C63756CFC
:100F400061746F72206C6F6720697320776F726BAA
:100F5000696E670D0A20000020002C01000030316E
:100F600032333435363738392B2D582F3031323330
:0A0F70003435363738392B2D582F51
:00000001FF
